:020000040800F2
:10000000680600201D0200082502000827020008DB
:10001000290200082B0200082D0200080000000041
:100020000000000000000000000000002F02000897
:100030003102000800000000330200083502000809
:1000400037020008370200083702000837020008AC
:10005000370200083702000837020008370200089C
:10006000370200083702000837020008370200088C
:10007000370200083702000837020008370200087C
:10008000150300083D0300083702000800000000C7
:10009000000000000000000000000000370200081F
:1000A000370200083702000837020008370200084C
:1000B000370200083702000837020008370200083C
:1000C000370200083702000837020008370200082C
:1000D00037020008370200089903000800000000FA
:1000E000370200083702000837020008000000004D
:1000F00000000000000000000000000037020008BF
:10010000000000003702000837020008370200082C
:1001100000000000000000000000000000000000DF
:1001200037020008370200083702000837020008CB
:10013000370200080000000000000000000000007E
:10014000000000000000000000000000370200086E
:10015000370200083702000837020008370200089B
:10016000370200083702000800000000000000000D
:10017000000000000000000000000000000000007F
:10018000000000003702000800000000000000002E
:10019000370200083702000800F002F800F02EF8DD
:1001A0000AA090E8000C82448344AAF10107DA45D2
:1001B00001D100F023F8AFF2090EBAE80F0013F0F6
:1001C000010F18BFFB1A43F001031847100200008B
:1001D000200200000023002400250026103A28BF3A
:1001E00078C1FBD8520728BF30C148BF0B607047A9
:1001F0001FB500F0E6F81FBD10B510BD00F031F8D6
:100200001146FFF7F5FF00F0D7F800F04FF803B400
:10021000FFF7F2FF03BC00F057F8000009488047E1
:1002200009480047FEE7FEE7FEE7FEE7FEE7FEE7D8
:10023000FEE7FEE7FEE7FEE704480549054A064BF0
:10024000704700008503000899010008680000203D
:10025000680600206802002068020020704770478E
:100260007047754600F02CF8AE46050069465346C7
:1002700020F00700854618B020B5FFF7DDFFBDE888
:1002800020404FF000064FF000074FF000084FF0FD
:10029000000BAC46ACE8C009ACE8C009ACE8C0094A
:1002A000ACE8C00921F007018D46704710B504463F
:1002B000AFF300802046BDE81040FFF7A8BF000064
:1002C000004870470000002001491820ABBEFEE73F
:1002D000260002007047000043F63400C4F202001A
:1002E000016841F48071016042F20800C4F201002B
:1002F000016B026841F40021016342F4801141F076
:1003000001010160D0F8FC1241F40001C0F8FC12B8
:100310007047000046F20C00C4F2020050F8081CBE
:10032000090558BF704740F26001C2F20001012286
:100330000A70016841F400610160704746F20C00E8
:10034000C4F2020050F8081C890258BF704740F2FE
:100350006101C2F2000101220A70016841F400113A
:100360000160704742F20800C4F20100016841F4E4
:100370008001016010F8081C490744BF008B7047DA
:10038000FEE700004EF68850CEF20000016841F40E
:10039000700101607047000040F26200C2F200008C
:1003A0000121017044F20040C4F20000016821F014
:1003B0004001016070470000FFF78EFFFFF7D2FF9A
:1003C000FCE7F1EE100A4FF6FF71C0F2C03120EAEF
:1003D000010040F04070E1EE100A7047EC030008A5
:0C03E0000000002068060000D4010008A6
:040000050800021DD0
:00000001FF
